:020000040800F2
:10000000005000201D0F0008B90E0008C10E0008A6
:10001000C90E0008D10E0008D90E0008000000002B
:10002000000000000000000000000000E10E0008D9
:10003000ED0E000800000000F90E0008050F000892
:10004000650F0008650F0008650F0008650F0008C0
:10005000650F0008650F0008650F0008650F0008B0
:10006000650F0008650F0008650F0008650F0008A0
:10007000650F0008650F0008650F0008650F000890
:10008000650F0008650F0008650F0008650F000880
:10009000650F0008650F0008650F0008650F000870
:1000A000650F0008650F0008650F0008650F000860
:1000B000650F0008650F0008650F0008650F000850
:1000C000650F0008650F0008650F0008650F000840
:1000D000650F0008650F0008650F0008650F000830
:1000E000650F0008650F0008650F0008000000009C
:1000F0000000000000000000000000000000000000
:0C01000000000000000000005FF808F1A3
:10010C0010B5054C237833B9044B13B10448AFF345
:10011C0000800123237010BD14000020000000009B
:10012C00F822000808B5034B1BB103490348AFF391
:10013C00008008BD0000000018000020F822000814
:10014C0080F0004002E000BF81F0004142001FBF80
:10015C005FEA410392EA030F7FEA226C7FEA236C89
:10016C006AD04FEA1262D2EB1363C1BFD21841407E
:10017C0048404140B8BF5B42192B88BF704710F014
:10018C00004F40F4000020F07F4018BF404211F0B7
:10019C00004F41F4000121F07F4118BF494292EA1F
:1001AC00030F3FD0A2F1010241FA03FC10EB0C004B
:1001BC00C3F1200301FA03F100F0004302D54942D8
:1001CC0060EB4000B0F5000F13D3B0F1807F06D385
:1001DC0040084FEA310102F10102FE2A51D2B1F17D
:1001EC00004F40EBC25008BF20F0010040EA030072
:1001FC007047490040EB0000013A28BFB0F5000FF2
:10020C00EDD2B0FA80FCACF1080CB2EB0C0200FAA7
:10021C000CF0AABF00EBC25052421843BCBFD040F6
:10022C001843704792F0000F81F4000106BF80F470
:10023C0000000132013BB5E74FEA41037FEA226C33
:10024C0018BF7FEA236C21D092EA030F04D092F0FE
:10025C00000F08BF0846704790EA010F1CBF002032
:10026C00704712F07F4F04D1400028BF40F000408F
:10027C00704712F100723CBF00F50000704700F0AF
:10028C00004343F0FE4040F4000070477FEA2262D6
:10029C0016BF08467FEA23630146420206BF5FEAA7
:1002AC00412390EA010F40F4800070474FF00003A7
:1002BC0004E000BF10F0004348BF40425FEA000C6E
:1002CC0008BF704743F0964301464FF000001CE016
:1002DC0050EA010208BF70474FF000030AE000BF6C
:1002EC0050EA010208BF704711F0004302D54042AA
:1002FC0061EB41015FEA010C02BF8446014600201C
:10030C0043F0B64308BFA3F18053A3F50003BCFA36
:10031C008CF2083AA3EBC25310DB01FA02FC6344E3
:10032C0000FA02FCC2F12002BCF1004F20FA02F2EA
:10033C0043EB020008BF20F00100704702F12002DD
:10034C0001FA02FCC2F1200250EA4C0021FA02F23E
:10035C0043EB020008BF20EADC7070474FF0FF0C43
:10036C001CEAD0521EBF1CEAD15392EA0C0F93EA3E
:10037C000C0F6FD01A4480EA010C400218BF5FEAE0
:10038C0041211ED04FF0006343EA501043EA511153
:10039C00A0FB01310CF00040B1F5000F3EBF49004D
:1003AC0041EAD3715B0040EA010062F17F02FD2A51
:1003BC001DD8B3F1004F40EBC25008BF20F0010034
:1003CC00704790F0000F0CF0004C08BF49024CEA4B
:1003DC00502040EA51207F3AC2BFD2F1FF0340EADD
:1003EC00C250704740F400004FF00003013A5DDC4E
:1003FC0012F1190FDCBF00F000407047C2F100028F
:10040C00410021FA02F1C2F1200200FA02FC5FEA7B
:10041C00310040F1000053EA4C0308BF20EADC70C5
:10042C00704792F0000F00F0004C02BF400010F437
:10043C00000F013AF9D040EA0C0093F0000F01F0E4
:10044C00004C02BF490011F4000F013BF9D041EA06
:10045C000C018FE70CEAD15392EA0C0F18BF93EA08
:10046C000C0F0AD030F0004C18BF31F0004CD8D132
:10047C0080EA010000F00040704790F0000F17BFB9
:10048C0090F0004F084691F0000F91F0004F14D0FF
:10049C0092EA0C0F01D142020FD193EA0C0F03D157
:1004AC004B0218BF084608D180EA010000F000405A
:1004BC0040F0FE4040F40000704740F0FE4040F435
:1004CC00400070474FF0FF0C1CEAD0521EBF1CEAD4
:1004DC00D15392EA0C0F93EA0C0F69D0A2EB0302F2
:1004EC0080EA010C49024FEA402037D04FF080538C
:1004FC0043EA111143EA10130CF000408B4238BF51
:10050C005B0042F17D024FF4000C8B4224BF5B1A5E
:10051C0040EA0C00B3EB510F24BFA3EB510340EAAC
:10052C005C00B3EB910F24BFA3EB910340EA9C005A
:10053C00B3EBD10F24BFA3EBD10340EADC001B01CA
:10054C0018BF5FEA1C1CE0D1FD2A3FF650AF8B426E
:10055C0040EBC25008BF20F0010070470CF0004C7B
:10056C004CEA50207F32C2BFD2F1FF0340EAC250A6
:10057C00704740F400004FF00003013A37E792F067
:10058C00000F00F0004C02BF400010F4000F013AC5
:10059C00F9D040EA0C0093F0000F01F0004C02BFC0
:1005AC00490011F4000F013BF9D041EA0C0195E729
:1005BC000CEAD15392EA0C0F08D142027FF47DAFC2
:1005CC0093EA0C0F7FF470AF084676E793EA0C0FB2
:1005DC0004D14B023FF44CAF08466EE730F0004CB0
:1005EC0018BF31F0004CCAD130F000427FF45CAF40
:1005FC0031F000437FF43CAF5FE700BF4FF0FF3CAE
:10060C0006E000BF4FF0010C02E000BF4FF0010C00
:10061C004DF804CD4FEA40024FEA41037FEA226CC9
:10062C0018BF7FEA236C11D001B052EA530C18BFEB
:10063C0090EA010F58BFB2EB030088BFC81738BF50
:10064C006FEAE17018BF40F0010070477FEA226C3E
:10065C0002D15FEA402C05D17FEA236CE4D15FEA3A
:10066C00412CE1D05DF8040B704700BF844608466E
:10067C006146FFE70FB5FFF7C9FF002848BF10F12F
:10068C00000F0FBD4DF808EDFFF7F4FF0CBF012074
:10069C0000205DF808FB00BF4DF808EDFFF7EAFFFE
:1006AC0034BF012000205DF808FB00BF4DF808EDB9
:1006BC00FFF7E0FF94BF012000205DF808FB00BFAE
:1006CC004DF808EDFFF7D2FF94BF012000205DF834
:1006DC0008FB00BF4DF808EDFFF7C8FF34BF012041
:1006EC0000205DF808FB00BF80B483B000AF034668
:1006FC00FB800A4B1B6800225A6200BF074B1B6829
:10070C00596AFA8813469B0013445B009942F5D34F
:10071C0000BF00BF0C37BD4680BC7047780000207E
:10072C0080B500AF01220421064800F0F8FE052038
:10073C00FFF7DAFF01220221024800F0F0FE00BFB1
:10074C0080BD00BF0008014080B584B000AF0346F7
:10075C00FB80FB88192B03D9FB88193B9BB200E06B
:10076C000023FB81FB88142B03D9FB88143B9BB221
:10077C0000E00023BB81BA89FB89934228BF134652
:10078C007B81BA89FB89934238BF13463B81FB8935
:10079C00002B04D0012202211B4800F0C0FEBB89B3
:1007AC00002B04D001220421174800F0B8FE7B89ED
:1007BC001846FFF799FFFA89BB899A4205D20022A5
:1007CC000221114800F0ABFE08E0BA89FB899A427D
:1007DC0004D2002204210C4800F0A1FE3A897B8946
:1007EC00D31A9BB21846FFF77FFF0022022106485E
:1007FC0000F095FE00220421034800F090FE00BF9B
:10080C001037BD4680BD00BF0008014080B584B0E4
:10081C0000AF2F4BFB602F4B1B6800225A6201224A
:10082C0001212D4800F07BFE00BF2A4B1B685B6A40
:10083C00092BFAD900220121274800F070FE06E0AE
:10084C00244B1B685B6A41F2883293422FD84FF4D9
:10085C008051224800F04CFE0346002BF0D01D4B7B
:10086C001B685B6ABB6008E01A4B1B685A6ABB6862
:10087C00D31A49F6404293421BD84FF48051174883
:10088C0000F036FE0346012BEED0124B1B685B6A60
:10089C007B607A68BB68D31A1846FFF707FD0346DE
:1008AC000F491846FFF70EFE0346FB6002E000BF3F
:1008BC0000E000BF00BF074B1B685B6A4EF65F226F
:1008CC009342F8D9FB6818461037BD4680BD00BF6F
:1008DC00000080BF3000002000080140000C0140E7
:1008EC000000684280B586B000AF0023FB75002382
:1008FC00BB7516E0FFF78AFFF8604FF00001F8684F
:10090C00FFF7E8FE0346002B08D0FB7D5A1CFA7556
:10091C009B0018333B44FA6843F8182CBB7D013319
:10092C00BB75BB7D022BE5D9FB7D002B01D1244B84
:10093C0042E0FB7D012B01D13B683DE0FB7D022BAE
:10094C000CD13B687A6811461846FFF7A5FE0346A2
:10095C00002B01D03B682FE07B682DE03B687A6868
:10096C0011461846FFF7B6FE0346002B05D03B6830
:10097C003B617B683B603B697B607B68BA68114676
:10098C001846FFF7A7FE0346002B05D07B683B619A
:10099C00BB687B603B69BB603B687A681146184654
:1009AC00FFF798FE0346002B05D03B683B617B6844
:1009BC003B603B697B607B6818461837BD4680BD41
:1009CC00000080BF80B584B000AF00F0C7FA00F023
:1009DC00CDF800F0ABF900F00FF900F059F95848D8
:1009EC0001F0E4F9574801F0E1F9002202215648E0
:1009FC0000F095FD00220421534800F090FD0022E8
:100A0C000121514800F08BFD504B1B78002B0ED070
:100A1C004F4B1B78002B0AD14E4B1B684E49184686
:100A2C00FFF758FE0346002B01D0012300E0002302
:100A3C007B727B7A002B05D0FFF772FEFFF7E6FE88
:100A4C00F8600CE0002202213F4800F068FD002213
:100A5C0004213D4800F063FDFFF744FFF8604FF0C0
:100A6C000001F868FFF718FE0346002B11D03B4B32
:100A7C001B780133DAB2394B1A70384B1B78022BC6
:100A8C0003D94FF00003FB6009E0354B1B68FB609A
:100A9C0005E0324B00221A70314AFB681360314971
:100AAC00F868FFF751FB03467B602A4A7B681360AA
:100ABC00274B1B78002B0AD02B497868FFF70AFECE
:100ACC000346002B0ED0224B00221A700AE04FF086
:100ADC007E517868FFF7EAFD0346002B02D01C4BD1
:100AEC0001221A701A4B1B78002B0DD00022022108
:100AFC00154800F014FD00220421134800F00FFDEE
:100B0C00124B00221A707FE7104B1B78002B06D17A
:100B1C004FF496737B810D4B01221A700BE00E493A
:100B2C007868FFF7D7FD0346002B02D046237B8164
:100B3C0001E023237B817B891846FFF705FE63E7E1
:100B4C00300000207800002000080140C100002087
:100B5C00C0000020000000200000F041C200002076
:100B6C0004000020000060410000A04080B590B05F
:100B7C0000AF07F1180328220021184601F08AFB68
:100B8C003B1D00221A605A609A60DA601A610123D8
:100B9C00BB614FF48033FB6100233B620123BB62DA
:100BAC0002237B634FF48033BB634FF4E013FB638E
:100BBC0007F11803184600F0CBFC0346002B01D0BC
:100BCC0000F00CF90F237B600223BB600023FB6059
:100BDC004FF480633B6100237B613B1D022118466F
:100BEC0000F038FF0346002B01D000F0F7F800BFEF
:100BFC004037BD4680BD000080B586B000AF07F120
:100C0C00080300221A605A609A60DA603B460022A0
:100C1C001A605A601D4B4FF080421A601B4B4722E2
:100C2C005A601A4B00229A60184B4FF6FF72DA602A
:100C3C00164B00221A61154B00229A61134801F0E1
:100C4C0065F80346002B01D000F0C8F84FF4805330
:100C5C00BB6007F1080319460C4801F0F1F8034694
:100C6C00002B01D000F0BAF800233B6000237B601E
:100C7C003B461946054801F0AFFA0346002B01D05C
:100C8C0000F0ACF800BF1837BD4680BD3000002026
:100C9C0080B586B000AF07F1080300221A605A60D5
:100CAC009A60DA603B4600221A605A601D4B1E4A5D
:100CBC001A601C4B41F61F425A601A4B00229A6074
:100CCC00184B4FF6FF72DA60164B00221A61154B67
:100CDC0000229A61134801F019F80346002B01D049
:100CEC0000F07CF84FF48053BB6007F10803194601
:100CFC000C4801F0A5F80346002B01D000F06EF86B
:100D0C0000233B6000237B603B461946054801F0FD
:100D1C0063FA0346002B01D000F060F800BF1837CF
:100D2C00BD4680BD780000200004004080B588B02E
:100D3C0000AF07F1100300221A605A609A60DA6063
:100D4C00234B9B69224A43F020039361204B9B6900
:100D5C0003F02003FB60FB681D4B9B691C4A43F0AE
:100D6C00040393611A4B9B6903F00403BB60BB68DB
:100D7C00174B9B69164A43F008039361144B9B690C
:100D8C0003F008037B607B6800220721114800F008
:100D9C00C6FB07233B6101237B610023BB6102235C
:100DAC00FB6107F1100319460A4800F01DFA4FF4D5
:100DBC0080533B6100237B610023BB6107F110036F
:100DCC001946054800F010FA00BF2037BD4680BD1B
:100DDC000010024000080140000C014080B400AF3C
:100DEC0072B600BF00BFFDE780B485B000AF154BF5
:100DFC009B69144A43F001039361124B9B6903F006
:100E0C000103BB60BB680F4BDB690E4A43F0805398
:100E1C00D3610C4BDB6903F080537B607B680A4B1E
:100E2C005B68FB60FB6823F0E063FB60FB6843F0EE
:100E3C000073FB60044AFB68536000BF1437BD4667
:100E4C0080BC7047001002400000014080B485B0A7
:100E5C0000AF78607B681B68B3F1804F0CD1114BED
:100E6C00DB69104A43F00103D3610E4BDB6903F0DD
:100E7C000103FB60FB6810E07B681B680A4A934225
:100E8C000BD1084BDB69074A43F00203D361054BD6
:100E9C00DB6903F00203BB60BB6800BF1437BD46BF
:100EAC0080BC7047001002400004004080B400AFCA
:100EBC0000BFFDE780B400AF00BFFDE780B400AF1A
:100ECC0000BFFDE780B400AF00BFFDE780B400AF0A
:100EDC0000BFFDE780B400AF00BFBD4680BC7047CB
:100EEC0080B400AF00BFBD4680BC704780B400AF7B
:100EFC0000BFBD4680BC704780B500AF00F074F8F1
:100F0C0000BF80BD80B400AF00BFBD4680BC704741
:100F1C00FFF7F8FF0B480C490C4A002302E0D458A9
:100F2C00C4500433C4188C42F9D3094A094C002329
:100F3C0001E013600432A242FBD301F0B3F9FFF7D6
:100F4C0041FD704700000020140000203C230008E5
:100F5C0014000020C8000020FEE7000080B500AFA0
:100F6C00084B1B68074A43F010031360032000F082
:100F7C0007F90F2000F008F8FFF736FF002318469A
:100F8C0080BD00BF0020024080B582B000AF786009
:100F9C00124B1A68124B1B7819464FF47A73B3FB39
:100FAC00F1F3B2FBF3F3184600F011F90346002BF2
:100FBC0001D001230EE07B680F2B0AD80022796840
:100FCC004FF0FF3000F0E7F8064A7B68136000230F
:100FDC0000E0012318460837BD4680BD08000020FC
:100FEC00100000200C00002080B400AF054B1B78D3
:100FFC001A46054B1B681344034A136000BFBD46D9
:10100C0080BC704710000020C400002080B400AFEA
:10101C00024B1B681846BD4680BC7047C4000020BC
:10102C0080B485B000AF78607B6803F00703FB6089
:10103C000C4BDB68BB60BA684FF6FF031340BB6018
:10104C00FB681A02BB68134343F0BF6343F40033DD
:10105C00BB60044ABB68D36000BF1437BD4680BC7C
:10106C00704700BF00ED00E080B400AF044BDB68BC
:10107C001B0A03F007031846BD4680BC704700BF2F
:10108C0000ED00E080B483B000AF03463960FB7123
:10109C0097F90730002B0ADB3B68DAB20C4997F959
:1010AC0007301201D2B20B4483F800230AE03B68EC
:1010BC00DAB20849FB7903F00F03043B1201D2B2F8
:1010CC000B441A7600BF0C37BD4680BC704700BF7E
:1010DC0000E100E000ED00E080B489B000AFF86002
:1010EC00B9607A60FB6803F00703FB61FB69C3F12D
:1010FC000703042B28BF0423BB61FB690433062BB5
:10110C0002D9FB69033B00E000237B614FF0FF3207
:10111C00BB6902FA03F3DA43BB681A407B699A4055
:10112C004FF0FF317B6901FA03F3D9437B680B4025
:10113C00134318462437BD4680BC704780B582B037
:10114C0000AF78607B68013BB3F1807F01D3012352
:10115C000FE00A4A7B68013B53600F214FF0FF30D0
:10116C00FFF790FF054B00229A60044B07221A6090
:10117C00002318460837BD4680BD00BF10E000E0D4
:10118C0080B582B000AF78607868FFF749FF00BF88
:10119C000837BD4680BD80B586B000AF0346B96048
:1011AC007A60FB7300237B61FFF75EFF78617A68DE
:1011BC00B9687869FFF790FF024697F90F3011462E
:1011CC001846FFF75FFF00BF1837BD4680BD80B5DE
:1011DC0082B000AF78607868FFF7B0FF034618461E
:1011EC000837BD4680BD000080B48BB000AF78607E
:1011FC00396000237B6200233B6269E101227B6A38
:10120C0002FA03F3FB613B681B68FA691340BB618C
:10121C00BA69FB699A4240F058813B685B689A4A0C
:10122C0093425ED0984A934275D8984A934258D0CC
:10123C00964A93426FD8964A934252D0944A93421C
:10124C0069D8944A93424CD0924A934263D8924ABA
:10125C00934246D0904A93425DD8122B2AD8122B37
:10126C0059D801A252F823F0EF120008C912000855
:10127C00DB1200081D1300082313000823130008B9
:10128C00231300082313000823130008231300085A
:10129C00231300082313000823130008231300084A
:1012AC00231300082313000823130008D11200088D
:1012BC00E5120008794A934213D02CE03B68DB68B6
:1012CC003B6229E03B68DB6804333B6224E03B680B
:1012DC00DB6808333B621FE03B68DB680C333B6226
:1012EC001AE03B689B68002B02D104233B6213E09D
:1012FC003B689B68012B05D108233B627B68FA692C
:10130C001A6109E008233B627B68FA695A6103E0C1
:10131C0000233B6200E000BFBB69FF2B01D87B6858
:10132C0001E07B6804337B61BB69FF2B02D87B6ACD
:10133C009B0002E07B6A083B9B003B617B691A685F
:10134C000F213B6901FA03F3DB431A40396A3B690D
:10135C0001FA03F31A437B691A603B685B6803F07C
:10136C008053002B00F0B1804D4B9B694C4A43F0ED
:10137C00010393614A4B9B6903F00103BB60BB689B
:10138C00484A7B6A9B08023352F82330FB607B6A25
:10139C0003F003039B000F2202FA03F3DB43FA680A
:1013AC001340FB607B68404A934213D07B683F4AF2
:1013BC0093420DD07B683E4A934207D07B683D4AEE
:1013CC00934201D1032306E0042304E0022302E04C
:1013DC00012300E000237A6A02F00302920093409A
:1013EC00FA681343FB602F497B6A9B080233FA6847
:1013FC0041F823203B685B6803F48013002B06D074
:10140C002D4B9A682C49BB6913438B6006E02A4B21
:10141C009A68BB69DB43284913408B603B685B6867
:10142C0003F40013002B06D0234BDA682249BB6966
:10143C001343CB6006E0204BDA68BB69DB431E49E3
:10144C001340CB603B685B6803F40033002B06D081
:10145C00194B5A681849BB6913434B6006E0164B8D
:10146C005A68BB69DB43144913404B603B685B68AB
:10147C0003F48033002B21D00F4B1A680E49BB6943
:10148C0013430B6021E000BF00003210000031104C
:10149C00000022100000211000001210000011109A
:1014AC00001002400000014000080140000C014007
:1014BC000010014000140140000401400B4B1A685D
:1014CC00BB69DB43094913400B607B6A01337B62C8
:1014DC003B681A687B6A22FA03F3002B7FF48EAE0A
:1014EC0000BF00BF2C37BD4680BC704700040140D4
:1014FC0080B485B000AF78600B467B807B689A68BF
:10150C007B881340002B02D00123FB7301E00023E6
:10151C00FB73FB7B18461437BD4680BC704780B408
:10152C0083B000AF78600B467B8013467B707B7872
:10153C00002B03D07A887B681A6103E07B881A043D
:10154C007B681A6100BF0C37BD4680BC7047000039
:10155C0080B586B000AF78607B68002B01D1012389
:10156C0072E27B681B6803F00103002B00F087809C
:10157C00924B5B6803F00C03042B0CD08F4B5B6815
:10158C0003F00C03082B12D18C4B5B6803F48033F3
:10159C00B3F5803F0BD1894B1B6803F40033002B50
:1015AC006CD07B685B68002B68D101234CE27B68B4
:1015BC005B68B3F5803F06D1804B1B687F4A43F4D0
:1015CC00803313602EE07B685B68002B0CD17B4B67
:1015DC001B687A4A23F480331360784B1B68774A74
:1015EC0023F4802313601DE07B685B68B3F5A02FA8
:1015FC000CD1724B1B68714A43F4802313606F4B00
:10160C001B686E4A43F4803313600BE06B4B1B6812
:10161C006A4A23F480331360684B1B68674A23F4CF
:10162C00802313607B685B68002B13D0FFF7EEFC04
:10163C00386108E0FFF7EAFC02463B69D31A642BD9
:10164C0001D9032300E25D4B1B6803F40033002B2C
:10165C00F0D014E0FFF7DAFC386108E0FFF7D6FCB5
:10166C0002463B69D31A642B01D90323ECE1534B9B
:10167C001B6803F40033002BF0D100E000BF7B6843
:10168C001B6803F00203002B63D04C4B5B6803F028
:10169C000C03002B0BD0494B5B6803F00C03082B9D
:1016AC001CD1464B5B6803F48033002B16D1434BA3
:1016BC001B6803F00203002B05D07B681B69012B10
:1016CC0001D00123C0E13D4B1B6823F0F8027B687D
:1016DC005B69DB00394913430B603AE07B681B699B
:1016EC00002B20D0364B01221A60FFF78FFC38619B
:1016FC0008E0FFF78BFC02463B69D31A022B01D999
:10170C000323A1E12D4B1B6803F00203002BF0D047
:10171C002A4B1B6823F0F8027B685B69DB002749C6
:10172C0013430B6015E0264B00221A60FFF76EFC8A
:10173C00386108E0FFF76AFC02463B69D31A022BBA
:10174C0001D9032380E11D4B1B6803F00203002B1E
:10175C00F0D17B681B6803F00803002B3AD07B6840
:10176C009B69002B19D0174B01221A60FFF74EFC16
:10177C00386108E0FFF74AFC02463B69D31A022B9A
:10178C0001D9032360E10D4B5B6A03F00203002BCC
:10179C00F0D0012000F09CFA1CE00A4B00221A60E9
:1017AC00FFF734FC38610FE0FFF730FC02463B6971
:1017BC00D31A022B08D9032346E100BF00100240C4
:1017CC000000424280044242924B5B6A03F00203E7
:1017DC00002BE9D17B681B6803F00403002B00F09D
:1017EC00A6800023FB758B4BDB6903F08053002B29
:1017FC000DD1884BDB69874A43F08053D361854B0D
:10180C00DB6903F08053BB60BB680123FB75824B23
:10181C001B6803F48073002B18D17F4B1B687E4A26
:10182C0043F480731360FFF7F1FB386108E0FFF7B6
:10183C00EDFB02463B69D31A642B01D9032303E168
:10184C00754B1B6803F48073002BF0D07B68DB684E
:10185C00012B06D16F4B1B6A6E4A43F001031362D6
:10186C002DE07B68DB68002B0CD16A4B1B6A694A44
:10187C0023F001031362674B1B6A664A23F00403CF
:10188C0013621CE07B68DB68052B0CD1614B1B6A77
:10189C00604A43F0040313625E4B1B6A5D4A43F0DB
:1018AC00010313620BE05B4B1B6A5A4A23F00103E2
:1018BC001362584B1B6A574A23F0040313627B686C
:1018CC00DB68002B15D0FFF7A1FB38610AE0FFF7AE
:1018DC009DFB02463B69D31A41F28832934201D9EF
:1018EC000323B1E04B4B1B6A03F00203002BEED039
:1018FC0014E0FFF78BFB38610AE0FFF787FB024629
:10190C003B69D31A41F28832934201D903239BE0FD
:10191C00404B1B6A03F00203002BEED1FB7D012B25
:10192C0005D13C4BDB693B4A23F08053D3617B6888
:10193C00DB69002B00F08780364B5B6803F00C03EF
:10194C00082B61D07B68DB69022B46D1334B00221C
:10195C001A60FFF75BFB386108E0FFF757FB0246A4
:10196C003B69D31A022B01D903236DE0294B1B6869
:10197C0003F00073002BF0D17B681B6AB3F5803F3A
:10198C0008D1244B5B6823F400327B689B682149A7
:10199C0013434B601F4B5B6823F474127B68196A0A
:1019AC007B685B6A0B431B4913434B601B4B012247
:1019BC001A60FFF72BFB386108E0FFF727FB0246A4
:1019CC003B69D31A022B01D903233DE0114B1B6851
:1019DC0003F00073002BF0D035E0104B00221A609E
:1019EC00FFF714FB386108E0FFF710FB02463B6978
:1019FC00D31A022B01D9032326E0064B1B6803F0F4
:101A0C000073002BF0D11EE07B68DB69012B07D142
:101A1C00012319E0001002400070004060004242B7
:101A2C000B4B5B68FB60FB6803F480327B681B6AC2
:101A3C009A4206D1FB6803F470127B685B6A9A4287
:101A4C0001D0012300E0002318461837BD4680BDA5
:101A5C000010024080B584B000AF786039607B68BC
:101A6C00002B01D10123D0E06A4B1B6803F0070364
:101A7C003A689A4210D9674B1B6823F007026549F4
:101A8C003B6813430B60634B1B6803F007033A6816
:101A9C009A4201D00123B8E07B681B6803F0020373
:101AAC00002B20D07B681B6803F00403002B05D0AF
:101ABC00594B5B68584A43F4E06353607B681B687E
:101ACC0003F00803002B05D0534B5B68524A43F4D8
:101ADC0060535360504B5B6823F0F0027B689B684B
:101AEC004D4913434B607B681B6803F00103002BCB
:101AFC0040D07B685B68012B07D1474B1B6803F414
:101B0C000033002B15D101237FE07B685B68022B2F
:101B1C0007D1414B1B6803F00073002B09D1012343
:101B2C0073E03D4B1B6803F00203002B01D1012332
:101B3C006BE0394B5B6823F003027B685B683649CA
:101B4C0013434B60FFF762FAF8600AE0FFF75EFAA6
:101B5C000246FB68D31A41F28832934201D903231F
:101B6C0053E02D4B5B6803F00C027B685B689B00B9
:101B7C009A42EBD1274B1B6803F007033A689A4251
:101B8C0010D2244B1B6823F0070222493B681343F5
:101B9C000B60204B1B6803F007033A689A4201D094
:101BAC00012332E07B681B6803F00403002B08D090
:101BBC00194B5B6823F4E0627B68DB6816491343BE
:101BCC004B607B681B6803F00803002B09D0124B99
:101BDC005B6823F460527B681B69DB000E4913437E
:101BEC004B6000F021F802460B4B5B681B0903F0BD
:101BFC000F030A49CB5C22FA03F3094A1360094B21
:101C0C001B681846FFF7C0F9002318461037BD466D
:101C1C0080BD00BF002002400010024010230008CD
:101C2C00080000200C00002080B487B000AF002317
:101C3C00FB600023BB6000237B6100237B600023DF
:101C4C003B611E4B5B68FB60FB6803F00C03042BD1
:101C5C0002D0082B03D027E0194B3B6127E0FB682F
:101C6C009B0C03F00F03174AD35C7B60FB6803F4F7
:101C7C008033002B10D0114B5B685B0C03F001031D
:101C8C00114AD35CBB607B680D4A03FB02F2BB6854
:101C9C00B2FBF3F37B6104E07B680C4A02FB03F3B9
:101CAC007B617B693B6102E0054B3B6100BF3B699B
:101CBC0018461C37BD4680BC704700BF0010024060
:101CCC0000127A00202300083023000800093D0090
:101CDC0080B485B000AF78600A4B1B680A4AA2FB3F
:101CEC0003235B0A7A6802FB03F3FB6000BFFB680B
:101CFC005A1EFA60002BF9D100BF00BF1437BD4645
:101D0C0080BC704708000020D34D621080B582B0B3
:101D1C0000AF78607B68002B01D1012341E07B6828
:101D2C0093F83D30DBB2002B06D17B68002283F8A0
:101D3C003C207868FFF78AF87B68022283F83D2004
:101D4C007B681A687B6804331946104600F040F92A
:101D5C007B68012283F846207B68012283F83E20B1
:101D6C007B68012283F83F207B68012283F84020A6
:101D7C007B68012283F841207B68012283F8422092
:101D8C007B68012283F843207B68012283F844207E
:101D9C007B68012283F845207B68012283F83D2073
:101DAC00002318460837BD4680BD000080B485B0BE
:101DBC0000AF78607B6893F83D30DBB2012B01D02B
:101DCC00012332E07B68022283F83D207B681B688C
:101DDC00184A93420ED07B681B68B3F1804F09D030
:101DEC007B681B68144A934204D07B681B68134AB7
:101DFC00934211D17B681B689B6803F00703FB605F
:101E0C00FB68062B10D07B681B681A687B681B6804
:101E1C0042F001021A6007E07B681B681A687B6855
:101E2C001B6842F001021A60002318461437BD46A5
:101E3C0080BC7047002C01400004004000080040AA
:101E4C0080B584B000AF786039600023FB737B6889
:101E5C0093F83C30012B01D10223B4E07B680122C2
:101E6C0083F83C207B68022283F83D207B681B684A
:101E7C009B68BB60BB6823F07703BB60BB6823F433
:101E8C007F43BB607B681B68BA689A603B681B68C1
:101E9C00B3F5005F3ED0B3F5005F00F28780B3F579
:101EAC00805F00F08680B3F5805F7FD8702B1AD0EE
:101EBC00702B7BD8602B50D0602B77D8502B3CD01C
:101ECC00502B73D8402B58D0402B6FD8302B64D06C
:101EDC00302B6BD8202B60D0202B67D8002B5CD0FC
:101EEC00102B5AD062E07B6818683B6899683B6895
:101EFC005A683B68DB6800F050F97B681B689B688C
:101F0C00BB60BB6843F07703BB607B681B68BA6837
:101F1C009A604FE07B6818683B6899683B685A6820
:101F2C003B68DB6800F039F97B681B689A687B6852
:101F3C001B6842F480429A603CE07B6818683B68FE
:101F4C0059683B68DB681A4600F0B0F87B681B6880
:101F5C005021184600F007F92CE07B6818683B68A4
:101F6C0059683B68DB681A4600F0CEF87B681B6842
:101F7C006021184600F0F7F81CE07B6818683B6895
:101F8C0059683B68DB681A4600F090F87B681B6860
:101F9C004021184600F0E7F80CE07B681A683B68B3
:101FAC001B681946104600F0DEF803E00123FB73B2
:101FBC0000E000BF7B68012283F83D207B68002293
:101FCC0083F83C20FB7B18461037BD4680BD0000D3
:101FDC0080B485B000AF786039607B681B68FB60AB
:101FEC007B682F4A93420BD07B68B3F1804F07D0AC
:101FFC007B682C4A934203D07B682B4A934208D1CE
:10200C00FB6823F07003FB603B685B68FA68134362
:10201C00FB607B68224A93420BD07B68B3F1804F04
:10202C0007D07B681F4A934203D07B681E4A9342B9
:10203C0008D1FB6823F44073FB603B68DB68FA68EB
:10204C001343FB60FB6823F080023B685B6913431E
:10205C00FB607B68FA681A603B689A687B68DA6296
:10206C003B681A687B689A627B680D4A934203D17D
:10207C003B681A697B681A637B6801225A617B682A
:10208C001B6903F00103002B05D07B681B6923F04F
:10209C0001027B681A6100BF1437BD4680BC7047D3
:1020AC00002C0140000400400008004080B487B0C0
:1020BC0000AFF860B9607A60FB681B6A7B61FB68F3
:1020CC001B6A23F00102FB681A62FB689B693B6187
:1020DC003B6923F0F0033B617B681B013A691343B6
:1020EC003B617B6923F00A037B617A69BB6813430C
:1020FC007B61FB683A699A61FB687A691A6200BF76
:10210C001C37BD4680BC704780B487B000AFF86008
:10211C00B9607A60FB681B6A7B61FB681B6A23F001
:10212C001002FB681A62FB689B693B613B6923F4F4
:10213C0070433B617B681B033A6913433B617B69CA
:10214C0023F0A0037B61BB681B017A6913437B619D
:10215C00FB683A699A61FB687A691A6200BF1C379E
:10216C00BD4680BC704780B485B000AF78603960E4
:10217C007B689B68FB60FB6823F07003FB603A682C
:10218C00FB68134343F00703FB607B68FA689A60B3
:10219C0000BF1437BD4680BC704780B487B000AF19
:1021AC00F860B9607A603B60FB689B687B617B6917
:1021BC0023F47F437B613B681A027B681A43BB683C
:1021CC0013437A6913437B61FB687A699A6000BF99
:1021DC001C37BD4680BC704780B485B000AF7860BA
:1021EC0039607B6893F83C30012B01D1022346E027
:1021FC007B68012283F83C207B68022283F83D2017
:10220C007B681B685B68FB607B681B689B68BB60BA
:10221C00FB6823F07003FB603B681B68FA68134390
:10222C00FB607B681B68FA685A607B681B68164AFF
:10223C0093420ED07B681B68B3F1804F09D07B684A
:10224C001B68124A934204D07B681B68104A934265
:10225C000CD1BB6823F08003BB603B685B68BA6839
:10226C001343BB607B681B68BA689A607B68012269
:10227C0083F83D207B68002283F83C20002318461D
:10228C001437BD4680BC7047002C01400004004050
:10229C000008004003460244934200D1704703F803
:1022AC00011BF9E770B500260C4D0D4B5B1B9C1008
:1022BC00A64209D1002600F019F80A4D0A4B5B1B07
:1022CC009C10A64205D170BD55F8043B98470136C9
:1022DC00EEE755F8043B98470136F2E73423000843
:1022EC00342300083423000838230008F8B500BF55
:1022FC00F8BC08BC9E467047F8B500BFF8BC08BCDB
:04230C009E46704732
:102310000000000000000000010203040607080995
:1023200002030405060708090A0B0C0D0E0F101016
:0423300001020000A6
:04233400310100086B
:042338000D0100088B
:10233C0000007A440000C84300127A00100000002C
:04234C00010000008C
:0400000508000F1DC3
:00000001FF
